:020000040800F2
:1000000000000520D5290008B90A0008BB0A00082D
:10001000BD0A0008BF0A0008C10A0008000000006D
:10002000000000000000000000000000C30A0008FB
:10003000C50A000800000000C70A0008C90A000835
:10004000252A0008252A0008252A0008252A000854
:10005000252A0008252A0008252A0008252A000844
:10006000252A0008252A0008252A0008252A000834
:10007000252A0008252A0008252A0008252A000824
:10008000252A0008252A0008252A0008252A000814
:10009000252A0008252A0008252A0008252A000804
:1000A000252A0008252A0008252A0008252A0008F4
:1000B000252A0008252A0008252A0008252A0008E4
:1000C000252A0008252A0008252A0008252A0008D4
:1000D000252A0008252A0008252A0008252A0008C4
:1000E000252A0008252A0008252A0008252A0008B4
:1000F000252A0008252A0008252A0008252A0008A4
:10010000252A0008252A0008252A0008252A000893
:10011000252A0008252A0008252A0008252A000883
:10012000252A0008252A0008252A0008252A000873
:10013000252A0008252A0008252A0008252A000863
:10014000252A0008252A0008252A0008252A000853
:10015000252A0008252A0008252A0008252A000843
:10016000252A0008252A0008252A0008252A000833
:10017000252A0008252A0008252A0008000000007A
:10018000252A0008252A0008252A0008252A000813
:10019000252A0008252A0008252A0008252A000803
:1001A000252A0008252A0008252A0008252A0008F3
:1001B000252A0008252A0008252A0008252A0008E3
:0801C000252A0008252A000889
:1001C80053B94AB9002908BF00281CBF4FF0FF31B6
:1001D8004FF0FF3000F00CB8ADF1080C6DE904CE1B
:1001E80002F04AFCDDF804E0DDE9022304B07047C0
:1001F800704700BF10B5054C237833B9044B13B1D1
:100208000448AFF300800123237010BD0C000020C8
:10021800000000003C2D000808B5034B1BB1034942
:100228000348AFF3008008BD000000001000002064
:100238003C2D00082DE9F0478EB0002409940A945B
:100248000B940C940D94694B1A6B42F004021A63D8
:100258001A6B02F004020192019A1A6B42F0200212
:100268001A631A6B02F020020292029A1A6B42F089
:1002780080021A631A6B02F080020392039A1A6BC7
:1002880042F001021A631A6B02F001020492049A06
:100298001A6B42F002021A631A6B02F0020205920C
:1002A800059A1A6B42F010021A631A6B02F01002D8
:1002B8000692069A1A6B42F008021A631A6B02F049
:1002C80008020792079A1A6B42F040021A631B6BE6
:1002D80003F040030893089B454E224620213046F0
:1002E80000F0BEFDDFF8148122464FF4B07140469D
:1002F80000F0B6FDDFF808A1224644F2810150461D
:1003080000F0AEFDDFF8FC9022464FF478414846F5
:1003180000F0A6FD374F22464021384600F0A0FDE8
:100328004FF4005309934FF488130A930B9409A9C7
:10033800404600F093FC082309930A940B9409A9FA
:100348002D4800F08BFC2023099301250A950B9476
:100358000C9409A9304600F081FC4FF4B07309935E
:100368000A950B940C9409A9404600F077FC44F2D6
:10037800810309930A950B940C9409A9504600F03F
:100388006DFC4FF4784309930A950B940C9409A9D2
:10039800484600F063FC402309930A950B940C949B
:1003A80009A9384600F05AFC802309930A940B9453
:1003B80009A9384600F052FC4FF4E8530993022388
:1003C8000A930B9403230C930A230D9309A930462F
:1003D80000F044FC4FF4007309930A940B9409A9A4
:1003E800304600F03BFC0EB0BDE8F0870038024014
:1003F80000000240001802400014024000080240B9
:10040800000402400010024072B6FEE708B5114829
:10041800114B036040F20313436000238360012201
:10042800C260036143618361C361036200F01EFD22
:1004380050B90021074800F077FD38B90021054878
:1004480000F0A0FD20B908BDFFF7DEFFFFF7DCFFD5
:10045800FFF7DAFF500100200054004008B51148AA
:10046800114B036040F203134360002383600122B1
:10047800C260036143618361C361036200F0F6FCFB
:1004880050B90021074800F04FFD38B90021054850
:1004980000F078FD20B908BDFFF7B6FFFFF7B4FFFD
:1004A800FFF7B2FFFC0000200060004010B596B0D6
:1004B80000241394149415940C940D940E940F9492
:1004C8001094119412942C22214601A802F0A7FA44
:1004D8002448254B0360446084604FF6FF73C36073
:1004E80004614461846101F08DFD002831D100234D
:1004F80013931493159313A91A4801F015FF0028B4
:1005080029D160230C9300220D920E920F92109223
:10051800119212920CA9134801F0DCFDE8B90023EE
:10052800019302930393049305934FF400520692A8
:10053800079308934FF0007209920A930B9301A94D
:10054800084801F041FF50B9064800F041FA16B0DA
:1005580010BDFFF759FFFFF757FFFFF755FFFFF7EC
:1005680053FF00BFB00000200000014008B50B4851
:100578000B4B03604FF43453436000238360C36024
:1005880003610C2242618361C3610362436202F02A
:10059800ECF900B908BDFFF737FF00BF28000020BD
:1005A8000048004000B595B03022002108A802F0AC
:1005B80036FA00230393049305930693079300F0F8
:1005C8000DFD204B1A6C42F080521A641B6C03F02C
:1005D80080530193019B1C4A136823F4404343F45E
:1005E80080431360136803F440430293029B012382
:1005F80008934FF4A023099302230E934FF480032A
:100608000F930423109360221192062212921393DF
:1006180008A800F0EBFC88B90F2303930223049386
:10062800802305934FF4E05306930021079103A814
:1006380000F064FF20B915B05DF804FBFFF7E4FE95
:10064800FFF7E2FE003802400070004008B52E4D6A
:1006580000224FF48071284600F002FC2B4C002247
:100668004FF40041204600F0FBFB002220212846E1
:1006780000F0F6FB00224FF48051204600F0F0FB1A
:1006880000224021284600F0EBFB012000F06AFA26
:1006980001224021284600F0E3FB012000F062FA25
:1006A80000224021284600F0DBFB00224FF4804165
:1006B800204600F0D5FB012000F054FA01224FF447
:1006C8008041204600F0CCFB012000F04BFA0022CC
:1006D8004FF48041204600F0C3FB00224FF4005144
:1006E800204600F0BDFB00F01FFAFFF75BFFFFF7A5
:1006F800A1FDFFF78BFEFFF7B1FEFFF7D7FEFFF76F
:1007080035FF00F005F8FEE700080240001002403F
:1007180030B5A1B0534B1D68534BA3FB05352D0BCA
:10072800524B1D6000241C941D941E941F94199410
:100738001A941B9412941394149415941694179461
:1007480018942C22214607A802F069F94848494B19
:1007580003604460602383606D00C5600461446188
:100768008023836101F01EFC002862D14FF480537E
:100778001C931CA93E4801F057FD00285CD13C4859
:1007880001F040FC00285AD1002319931B9319A9A2
:10079800374801F0C9FD002854D170231293002274
:1007A80013921492159216921792189212A9304821
:1007B80001F090FC002848D1042212A92C4801F02D
:1007C80089FC002844D1082212A9294801F082FC9A
:1007D800002840D1002307930893099308220A921E
:1007E8000B934FF400520C92119307A9204801F083
:1007F800EBFD002832D1002402940394049405945C
:1008080006941D4B1A6B42F010021A631B6B03F01F
:1008180010030193019B4FF47C530293022303932B
:100828000123069302A9154800F018FA204621B0C2
:1008380030BDFFF7E9FD99E7FFF7E6FD9FE7FFF712
:10084800E3FDA1E7FFF7E0FDA7E7FFF7DDFDB3E76D
:10085800FFF7DAFDB7E7FFF7D7FDBBE7FFF7D4FDF2
:10086800C9E700BF00000020D34D6210A40100209A
:10087800A80100200000014000380240001002409A
:1008880082B00A4B1A6C42F080521A641A6C02F059
:1008980080520092009A5A6C42F480425A645B6C0F
:1008A80003F480430193019B02B070470038024073
:1008B80010B5AAB0044600212591269127912891C8
:1008C8002991842204A802F0AAF82368304A9342A6
:1008D80004D0304A93422ED02AB010BD4FF4804342
:1008E800049304A800F0E6FE10BB2B4C236B43F0E6
:1008F80002032363236B03F002030093009B4FF46E
:1009080010732593122326930023279303232893F8
:100918000423299325A9214800F0A0F9236C43F466
:1009280000132364236C03F400130193019BD3E7A2
:10093800FFF76AFDD9E74FF40033049304A800F0E9
:10094800B9FE10BB144C236B43F020032363236BC5
:1009580003F020030293029B4FF440432593122394
:10096800269300232793032328930423299325A957
:100978000B4800F073F9236C43F080732364236CF5
:1009880003F080730393039BA6E7FFF73DFDD9E7C8
:10099800005400400060004000380240000402405B
:1009A800001402400268094B9A4200D0704782B096
:1009B80003F59C335A6C42F001025A645B6C03F0F5
:1009C80001030193019B02B0704700BF0000014082
:1009D80000B587B000230193029303930493059312
:1009E80002680E4B9A4202D007B05DF804FB03F58B
:1009F8009C331A6B42F010021A631B6B03F010034E
:100A08000093009B4FF40073019302230293012388
:100A1800059301A9024800F021F9E5E7000001402B
:100A28000010024010B5A8B004460021239124917B
:100A3800259126912791842202A801F0F0FF2268CF
:100A4800184B9A4201D028B010BD4FF4807302931E
:100A580002A800F02FFE10BB134B1A6C42F4802240
:100A68001A641A6C02F480220092009A1A6B42F0FF
:100A780008021A631B6B03F008030193019B4FF4F0
:100A8800407323930223249300232593032326935F
:100A98000723279323A9054800F0E0F8D3E7FFF7D9
:100AA800B3FCD9E70048004000380240000C02407F
:100AB800FEE7FEE7FEE7FEE7FEE770477047704790
:100AC80008B500F03DF808BD034AD2F8883043F471
:100AD8007003C2F88830704700ED00E010B5044696
:100AE8000E4B1A784FF47A73B3FBF2F30C4A106882
:100AF800B0FBF3F000F09EF868B90F2C01D9012083
:100B08000AE0002221464FF0FF3000F083F8054B41
:100B18001C60002000E0012010BD00BF0400002080
:100B2800000000200800002008B5032000F060F84D
:100B38000020FFF7D3FFFFF7A3FE002008BD000049
:100B4800034A1168034B1B780B441360704700BFBE
:100B5800F401002004000020014B1868704700BF12
:100B6800F401002038B50446FFF7F6FF0546B4F156
:100B7800FF3F02D0044B1B781C44FFF7EDFF401BDE
:100B8800A042FAD338BD00BF04000020002804DBCF
:100B98000901C9B2044B1954704700F00F0009014C
:100BA800C9B2024B1954704700E400E014ED00E0AC
:100BB80000B500F00700C0F1070CBCF1040F28BF16
:100BC8004FF0040C031D062B0FD9C31E4FF0FF3E38
:100BD8000EFA0CF021EA000199400EFA03FE22EA0F
:100BE8000E0241EA02005DF804FB0023EEE7000074
:100BF8000649CB6823F4E0631B041B0C000200F4D5
:100C0800E0600343024A1A43CA60704700ED00E0FF
:100C18000000FA0510B50446054BD868C0F3022059
:100C2800FFF7C6FF01462046FFF7B0FF10BD00BF23
:100C380000ED00E00138B0F1807F0BD24FF0E023E7
:100C48005861054AF02182F8231000209861072294
:100C58001A6170470120704700ED00E000230F2B58
:100C680000F2F48070B582B066E085684FEA430E02
:100C7800032404FA0EF425EA0405CC6804FA0EF4F9
:100C88002C438460446824EA02044A68C2F30012D0
:100C98009A40224342605DE0DC08083450F8242082
:100CA80003F00705AD004FF00F0E0EFA05FE22EA1D
:100CB8000E0E0A69AA4042EA0E0240F824205DE0BE
:100CC800092200E0002202FA0EF22A430234604DA3
:100CD80045F824205F4A94686FEA0C0224EA0C0560
:100CE8004E6816F4801F01D04CEA0405594CA560E3
:100CF800E46802EA04054E6816F4001F01D04CEAC5
:100D08000405544CE560646802EA04054E6816F46C
:100D1800003F01D04CEA04054E4C6560246822402F
:100D28004D6815F4803F01D04CEA0402494C22601A
:100D380001330F2B00F2888001229A400C6804EAE4
:100D4800020C32EA0404F3D14C6804F00304013CB9
:100D5800012C8AD94A6802F00302032A09D0C46820
:100D68005D000322AA4024EA02048A68AA402243BA
:100D7800C2604A6802F00302022A8DD004684FEA72
:100D8800430E032202FA0EF224EA02044A6802F031
:100D9800030202FA0EF2224302604A6812F4403F4C
:100DA800C6D02D4A546C44F480445464526C02F406
:100DB80080420192019A9C08A51C254A52F82550A8
:100DC80003F0030E4FEA8E0E0F2202FA0EF225EA06
:100DD8000205224A90423FF475AF02F580629042C4
:100DE80022D002F58062904220D002F580629042C3
:100DF8001ED002F5806290421CD002F580629042BB
:100E08001AD002F58062904218D002F580629042B2
:100E180016D002F58062904214D002F580629042AA
:100E28003FF44EAF0A224EE701224CE702224AE77E
:100E3800032248E7042246E7052244E7062242E760
:100E4800072240E708223EE702B070BD704700BFA6
:100E580000380140003C01400038024000000240D8
:100E68000AB181617047090481617047002857D031
:100E780010B5044690F84130002B41D0242384F863
:100E880041302268136823F0010313606368226805
:100E980023F0706313612268936823F4004393601E
:100EA800E368012B31D0A368226843F404439360BC
:100EB800E368022B2FD0226851681A4B0B4353600A
:100EC8002268D36823F40043D3602369626913431B
:100ED800A169226843EA0123D360E369216A226891
:100EE8000B4313602268136843F00103136000206A
:100EF8006064202384F84130206384F8420010BDE8
:100F080080F84030FFF7D4FCB8E7A368226843F4C0
:100F180000439360CCE723684FF400625A60CAE745
:100F28000120704700800002034690F84120D2B2A9
:100F3800202A23D190F84020012A21D0012280F8CC
:100F48004020242280F841200068026822F0010233
:100F580002601868026822F4805202601868026809
:100F68001143016019680A6842F001020A602022F0
:100F780083F84120002083F8400070470220704722
:100F880002207047034690F84120D2B2202A21D18E
:100F980090F84020012A1FD0012280F84020242206
:100FA80080F841200068026822F001020260186897
:100FB800026822F4706242EA0122026019680A6833
:100FC80042F001020A60202283F84120002083F8C1
:100FD800400070470220704702207047024A136899
:100FE80043F480731360704700700040002800F0DD
:100FF800FF8170B582B00446036813F0010F29D051
:10100800954B9B6803F00C03042B1AD0924B9B68FA
:1010180003F00C03082B0FD06368B3F5803F40D072
:10102800002B54D18C4B1A6822F480321A601A684B
:1010380022F480221A6039E0874B5B6813F4800F32
:10104800EAD0854B1B6813F4003F03D06368002B7C
:1010580000F0D081236813F0020F74D07E4B9B6898
:1010680013F00C0F5ED07C4B9B6803F00C03082B2D
:1010780053D0E368002B00F08980774A136843F067
:1010880001031360FFF768FD0546734B1B6813F0F7
:10109800020F72D1FFF760FD401B0228F5D903202B
:1010A800ADE16D4A136843F48033136063682BB372
:1010B800FFF752FD0546684B1B6813F4003FC9D182
:1010C800FFF74AFD401B6428F5D9032097E1B3F5E3
:1010D800A02F09D0604B1A6822F480321A601A686F
:1010E80022F480221A60E1E75B4B1A6842F48022FE
:1010F8001A601A6842F480321A60D7E7FFF72CFDAD
:101108000546554B1B6813F4003FA3D0FFF724FD99
:10111800401B6428F5D9032071E14F4B5B6813F439
:10112800800FA6D14C4B1B6813F0020F03D0E36865
:10113800012B40F06181484A136823F0F8032169C4
:1011480043EAC1031360236813F0080F46D06369AC
:1011580083B3414A536F43F001035367FFF7FCFC25
:1011680005463D4B5B6F13F0020F37D1FFF7F4FCD8
:10117800401B0228F5D9032041E1374A136823F0C0
:10118800F803216943EAC1031360DCE7324A1368B4
:1011980023F001031360FFF7DFFC05462E4B1B68A5
:1011A80013F0020FCFD0FFF7D7FC401B0228F5D968
:1011B800032024E1284A536F23F001035367FFF704
:1011C800CBFC0546244B5B6F13F0020F06D0FFF7EC
:1011D800C3FC401B0228F5D9032010E1236813F053
:1011E800040F7DD01C4B1B6C13F0805F1ED11A4B73
:1011F8001A6C42F080521A641B6C03F080530193FE
:10120800019B0125154B1B6813F4807F10D0A36840
:10121800012B25D0002B3BD10F4B1A6F22F0010276
:101228001A671A6F22F004021A671EE00025E9E720
:101238000A4A136843F480731360FFF78DFC06466F
:10124800064B1B6813F4807FE1D1FFF785FC801BF8
:101258006428F5D90320D2E000380240007000402D
:101268006E4A136F43F001031367A36833B3FFF7A4
:1012780073FC0646694B1B6F13F0020F2FD1FFF763
:101288006BFC801B41F288339842F3D90320B6E007
:10129800052B09D0614B1A6F22F001021A671A6FE9
:1012A80022F004021A67E0E75C4B1A6F42F004026E
:1012B8001A671A6F42F001021A67D6E7FFF74CFC6B
:1012C8000646564B1B6F13F0020F08D0FFF744FC7D
:1012D800801B41F288339842F3D903208FE0FDB98F
:1012E800A369002B00F08A804C4A926802F00C0235
:1012F800082A58D0022B19D0484A136823F0807363
:101308001360FFF729FC0446444B1B6813F0007F69
:1013180047D0FFF721FC001B0228F5D903206EE017
:101328003E4A136C23F080531364D9E73B4A136891
:1013380023F080731360FFF70FFC0546374B1B68DB
:1013480013F0007F06D0FFF707FC401B0228F5D9F1
:10135800032054E0E369226A1343626A43EA821372
:10136800A26A5208013A43EA0243E26A43EA026384
:1013780043F00053294A5360136843F080731360A5
:10138800FFF7EAFB0446254B1B6813F0007F06D1E4
:10139800FFF7E2FB001B0228F5D903202FE000200D
:1013A8002DE000202BE01D4A5268012B29D002F4C1
:1013B8008003E1698B4226D102F03F03216A8B4208
:1013C80023D1616A47F6C0731340B3EB811F1ED166
:1013D80002F44031A36A5B08013BB1EB034F18D11B
:1013E80002F07062E36AB2EB036F14D1002006E0EA
:1013F80001207047012002E0012000E0002002B037
:1014080070BD0120FBE70120F9E70120F7E7012083
:10141800F5E70120F3E70120F1E700BF00380240BB
:1014280008B5334B9B6803F00C03042B5BD0082BE7
:101438005BD12F4B5A6802F03F025B6813F4800FB0
:101448002CD02B4B5868C0F388104FEA401CBCEBDB
:10145800000C6EEB0E0E4FEA8E1343EA9C634FEAC4
:101468008C11B1EB0C0163EB0E03DB0043EA517303
:10147800C90011EB000C43F10003590200234FEAA5
:101488004C2041EADC51FEF79BFE194B5B68C3F325
:10149800014301335B00B0FBF3F008BD144B5868FF
:1014A800C0F388104FEA401CBCEB000C6EEB0E0E2C
:1014B8004FEA8E1343EA9C634FEA8C11B1EB0C019F
:1014C80063EB0E03DB0043EA5173C90011EB000C18
:1014D80043F10003990200234FEA8C2041EA9C5112
:1014E800FEF76EFED1E70348D7E70348D5E700BF0C
:1014F8000038024000127A000024F400002800F0AE
:10150800A08070B50D460446524B1B6803F00F03CC
:101518008B420BD24F4A136823F00F030B4313601F
:10152800136803F00F038B4240F08D80236813F09B
:10153800020F17D013F0040F04D0474A936843F4FE
:10154800E0539360236813F0080F04D0424A93686D
:1015580043F460439360404A936823F0F003A16822
:101568000B439360236813F0010F31D06368012B9C
:1015780020D0022B25D0384A126812F0020F64D00E
:1015880035498A6822F0030213438B60FFF7E4FAB7
:101598000646314B9B6803F00C036268B3EB820F7D
:1015A80016D0FFF7D9FA801B41F288339842F0D958
:1015B800032045E0284A126812F4003FE0D10120D8
:1015C8003EE0254A126812F0007FD9D1012037E0A9
:1015D800204B1B6803F00F03AB420AD91D4A13685E
:1015E80023F00F032B431360136803F00F03AB4280
:1015F8002DD1236813F0040F06D0174A936823F4FB
:10160800E053E1680B439360236813F0080F07D099
:10161800114A936823F46043216943EAC103936044
:10162800FFF7FEFE0C4B9B68C3F303130B4AD35C16
:10163800D8400B4B18600B4B1868FFF74FFA002087
:1016480070BD012070470120FAE70120F8E701206A
:10165800F6E700BF003C0240003802405C2D00085D
:101668000000002008000020014B1868704700BFE8
:101678000000002008B5FFF7F7FF044B9B68C3F391
:101688008223034AD35CD84008BD00BF003802401B
:10169800542D000808B5FFF7E7FF044B9B68C3F318
:1016A8004233034AD35CD84008BD00BF003802402B
:1016B800542D0008F0B583B00446066816F00106FC
:1016C8000DD0A74B9A6822F400029A609A68416B81
:1016D8000A439A60436B002B00F039810026256885
:1016E80015F4002511D09E4AD2F88C3023F440130B
:1016F800E16B0B43C2F88C30E36BB3F5801F00F04D
:101708002881002B00F027810025236813F4801F0F
:101718000FD0934AD2F88C3023F44003216C0B434A
:10172800C2F88C30236CB3F5800F00F0168103B932
:101738000125236813F0807F00D0012613F0200FC5
:1017480040F01081236813F0100F0CD0844BD3F8AD
:101758008C2022F08072C3F88C20D3F88C20A16BE7
:101768000A43C3F88C20236813F4804F08D07C4ABE
:10177800D2F8903023F44033616E0B43C2F89030B6
:10178800236813F4004F08D0754AD2F8903023F438
:101798004023A16E0B43C2F89030236813F4803FB6
:1017A80008D06F4AD2F8903023F44013E16E0B430F
:1017B800C2F89030236813F4003F08D0684AD2F882
:1017C800903023F44003216F0B43C2F89030236814
:1017D80013F0400F08D0624AD2F8903023F0030388
:1017E800616C0B43C2F89030236813F0800F08D067
:1017F8005B4AD2F8903023F00C03A16C0B43C2F87B
:101808009030236813F4807F08D0554AD2F890307E
:1018180023F03003E16C0B43C2F89030236813F4D3
:10182800007F08D04E4AD2F8903023F0C003216DD3
:101838000B43C2F89030236813F4806F08D0484AED
:10184800D2F8903023F44073616D0B43C2F89030A6
:10185800236813F4006F08D0414AD2F8903023F47B
:101868004063A16D0B43C2F89030236813F4805F86
:1018780008D03B4AD2F8903023F44053E16D0B4333
:10188800C2F89030236813F4005F08D0344AD2F8C5
:10189800903023F44043216E0B43C2F89030236804
:1018A80013F4800F08D02E4AD2F8903023F08063CA
:1018B800A16F0B43C2F89030236813F4001F0DD0BA
:1018C800274AD2F8903023F00063E16F0B43C2F847
:1018D8009030E36FB3F1006F00F0AA80236813F033
:1018E800080F00D0012513F4802F08D01C4AD2F825
:1018F800903023F04073616F0B43C2F89030236837
:1019080013F4000F09D0164AD2F8903023F0805310
:10191800D4F880100B43C2F8903026B9236813F02E
:10192800007F00F005810E4A136823F0806313607E
:10193800FFF712F906460A4B1B6813F0006F79D0BF
:10194800FFF70AF9801B6428F5D90320F3E0012684
:10195800C5E60126D5E60125D7E60126E7E600BF5C
:10196800003802407F4B1A6C42F080521A641B6C9C
:1019780003F080530193019B7B4A136843F48073FF
:101988001360FFF7E9F80746774B1B6813F4807F6D
:1019980006D1FFF7E1F8C01B6428F5D90320CAE097
:1019A800704B1B6F13F4407315D0226B02F4407216
:1019B8009A4210D06B4B1A6F22F44072196F41F49F
:1019C80080311967196F21F4803119671A671B6F05
:1019D80013F0010F12D1236B03F44072B2F5407F6C
:1019E8001DD0604A936823F4F81393605D490B6F28
:1019F800226BC2F30B0213430B67A3E6FFF7ACF8A5
:101A08000746584B1B6F13F0020FE4D1FFF7A4F8F9
:101A1800C01B41F288339842F3D903208BE0514828
:101A2800826822F4F812514919400A438260DDE7BE
:101A3800012553E7236813F0010F13D0636B8BB9AB
:101A4800484AD2F88430D2F88410606803F44033EE
:101A580043EA801301F070610B43A16843EA017304
:101A6800C2F88430236813F4002F03D0E26BB2F578
:101A7800801F06D013F4801F1ED0236CB3F5800F8F
:101A88001AD1384AD2F88430D2F88410606803F446
:101A9800403343EA8013E06843EA006301F0E04121
:101AA8000B43C2F88430D2F88C3023F01F03616AEC
:101AB80001390B43C2F88C30236813F0807F11D0B2
:101AC800284AD2F88400D2F88410666823691B0477
:101AD80043EA861300F07060034301F0E0410B43D2
:101AE800C2F88430236813F0007F0DD06268236940
:101AF8001B0443EA8213E26843EA0263A26843EAEA
:101B08000273184AC2F88430164A136843F0806397
:101B18001360FFF721F80646124B1B6813F0006F9D
:101B280006D1FFF719F8801B6428F5D9032002E0D5
:101B3800012D02D0002003B0F0BD0A4A136823F03B
:101B480080531360FFF708F80546064B1B6813F02F
:101B5800005F0DD0FFF700F8401B6428F5D903207B
:101B6800E9E700BF0038024000700040FFFCFF0FAB
:101B7800236813F4002F01D0E26B22B113F4801F05
:101B88001DD0236CDBB9354AD2F88830D2F88810DA
:101B9800606903F4403343EA8013A06943EA0063B1
:101BA80001F0E0410B43C2F88830D2F88C3023F4BE
:101BB800F853A16A013943EA0123C2F88C3023683B
:101BC80013F4001F03D0E36FB3F1006F31D0236823
:101BD80013F0080F19D0214AD2F88810D2F88830AB
:101BE800606903F4403343EA801301F070610B43EA
:101BF800E16943EA0173C2F88830D2F88C3023F4E3
:101C08004033E16A0B43C2F88C30144A136843F03E
:101C180080531360FEF7A0FF0446104B1B6813F0B7
:101C2800005F19D1FEF798FF001B6428F5D903203F
:101C380081E70A4AD2F88800D2F888106569236AD1
:101C48001B0443EA851300F07060034301F0E04190
:101C58000B43C2F88830BAE700206CE7003802402E
:101C680070B4036A23F001030362046A4268856959
:101C7800124B2B400D681D4324F002048B6823434C
:101C88000F4C104EB04218BFA0420CBF01240024D4
:101C980005D123F00803CE681E4326F004032CB1B7
:101CA80022F440724C6914438A6922434260856178
:101CB8004A684263036270BC704700BF8CFFFEFF36
:101CC800000001400004014070B4036A23F48073EB
:101CD8000362036A4268C569144C2C400E682643A7
:101CE80023F400738C6843EA0423114C114DA84275
:101CF80018BFA0420CBF0124002406D123F40063BE
:101D0800CD6843EA052323F480633CB122F44052B2
:101D18004C6942EA04128C6942EA04124260C661C4
:101D28004A68C263036270BC704700BF8CFFFEFF45
:101D3800000001400004014070B4036A23F480539A
:101D48000362036A4468C5690D4A2A400D6842EA7D
:101D5800052223F400538D6843EA0533094E0A4DE2
:101D6800A84218BFB04204D124F480444D6944EA23
:101D780085144460C2614A680264036270BC70479B
:101D8800FF8CFFFE000001400004014070B4036AAC
:101D980023F480330362036A4468426D0D4D154095
:101DA8000A682A4323F400338D6843EA05430A4E40
:101DB8000A4DA84218BFB04204D124F480344D69BA
:101DC80044EA0524446042654A688265036270BC3F
:101DD800704700BF8FFFFEFF000001400004014074
:101DE80070B4036A23F480130362036A4468456D80
:101DF8000D4A2A400D6842EA052223F400138D6833
:101E080043EA0553094E0A4DA84218BFB04204D10F
:101E180024F480244D6944EA8524446042654A6874
:101E2800C265036270BC7047FF8FFFFE000001406F
:101E38000004014010B4036A046A24F00104046237
:101E4800846924F0F00C4CEA021223F00A030B43D5
:101E5800826103625DF8044B704710B4036A23F093
:101E6800100303628469036A24F4704C4CEA02325A
:101E780023F0A00343EA0113826103625DF8044B77
:101E88007047836823F070030B4343F007038360B4
:101E98007047704730B503683B4A904214BF4FF013
:101EA800000E4FF0010EB0F1804F14BF72464EF095
:101EB8000102AAB9354CA04214BF00240124344DB4
:101EC800A8420DD064B904F1804404F58234A042DC
:101ED80014BF0024012405F50065A84200D01CB1F8
:101EE80023F070034C682343002A33D1274A9042D9
:101EF80014BF00220122264CA0422BD052BB02F173
:101F0800804202F58232904214BF0022012204F579
:101F18000064A0421ED0EAB91E4A904214BF0022B3
:101F2800012204F59A34A04214D09AB91A4A904270
:101F380014BF0022012204F50064A0420AD04AB965
:101F4800164A904214BF00220122A4F59634A042FA
:101F580000D022B123F4407CCB6843EA0C0323F081
:101F680080034A69134303608A68C2620A6882620E
:101F78000B4A904214BF73464EF001030BB10B6934
:101F880003630123436130BD0000014000080040A5
:101F980000040040004401400018004000200040B8
:101FA8000004014060B310B5044690F83D3013B307
:101FB800022384F83D30214651F8040BFFF76AFFED
:101FC800012384F8483084F83E3084F83F3084F8A0
:101FD800403084F8413084F8423084F8433084F843
:101FE800443084F8453084F8463084F8473084F823
:101FF8003D30002010BD80F83C30FFF74AFFD7E79E
:102008000120704760B310B5044690F83D3013B313
:10201800022384F83D30214651F8040BFFF73AFFBC
:10202800012384F8483084F83E3084F83F3084F83F
:10203800403084F8413084F8423084F8433084F8E2
:10204800443084F8453084F8463084F8473084F8C2
:102058003D30002010BD80F83C30FEF7A3FCD7E7E8
:102068000120704770B4036A23F010030362036A07
:1020780042688569144C2C400D6844EA052523F014
:1020880020038C6843EA0413104C114EB04218BF69
:10209800A0420CBF0124002406D123F08003CE689F
:1020A80043EA061323F040033CB122F440624C6932
:1020B80042EA84028C6942EA8402426085614A6885
:1020C8008263036270BC7047FF8CFFFE0000014012
:1020D8000004014038B590F83C30012B00F09580A1
:1020E80004460D46012380F83C30142A00F288800B
:1020F800DFE802F00B8686861F868686348686860B
:10210800488686865D86868671000068FFF7A8FD8A
:102118002268936943F0080393612268936923F066
:10212800040393612268936929690B439361002032
:1021380067E00068FFF796FF2268936943F400633D
:1021480093612268936923F4806393612268936999
:10215800296943EA01239361002052E00068FFF7F0
:10216800B3FD2268D36943F00803D3612268D369B9
:1021780023F00403D3612268D36929690B43D3612F
:1021880000203EE00068FFF7D7FD2268D36943F4DA
:102198000063D3612268D36923F48063D361226822
:1021A800D369296943EA0123D361002029E0006843
:1021B800FFF7ECFD2268536D43F00803536522686E
:1021C800536D23F0040353652268536D29690B434B
:1021D8005365002015E00068FFF702FE2268536D82
:1021E80043F4006353652268536D23F48063536599
:1021F8002268536D296943EA01235365002000E0F2
:102208000120002384F83C3038BD0220FCE710B4DC
:10221800846824F47F4C42EA03220A4342EA0C020F
:1022280082605DF8044B704790F83C30012B76D003
:1022380010B50446012380F83C30022380F83D3075
:1022480002689068374B034093600B68602B4CD052
:1022580023D8402B54D011D8202B03D00AD80BB147
:10226800102B05D119462068FFF70BFE002028E047
:10227800012026E0302BF5D0012022E0502B0AD196
:10228800CA6849682068FFF7D5FD50212068FFF724
:10229800F8FD002015E0012013E0B3F5805F3AD087
:1022A800B3F5005F14D0702B37D1CB684A688968C2
:1022B8002068FFF7ACFF2268936843F077039360C8
:1022C8000020012384F83D30002384F83C3010BD01
:1022D800CB684A6889682068FFF799FF2268936885
:1022E80043F4804393600020EBE7CA68496820689C
:1022F800FFF7B3FD60212068FFF7C3FD0020E0E78A
:10230800CA6849682068FFF795FD40212068FFF7F3
:10231800B8FD0020D5E70020D3E70120D1E702204F
:10232800704700BF8800FEFF90F83C20012A45D086
:1023380070B40346012280F83C20022280F83D2038
:102348000268506894681E4E1E4DAA4218BFB242D9
:1023580003D120F470004D68284320F070000D6808
:10236800284350601A681648B2F1804F18BF82425D
:1023780017D0A0F57C40824213D000F580608242DD
:102388000FD000F5806082420BD000F57840824281
:1023980007D000F57050824203D0A0F594308242F5
:1023A80004D124F08004896821439160012283F8D4
:1023B8003D20002083F83C0070BC70470220704725
:1023C800000001400004014090F83C30012B3CD053
:1023D80030B40246012380F83C30CB6823F44073C4
:1023E8008868034323F480634868034323F4006345
:1023F8000868034323F480530869034323F4005314
:102408004869034323F48043886A034323F4702311
:10241800886943EA004310680D4D0E4CA04218BF6E
:10242800A8420CD123F470034C6A43EA045323F006
:102438008073CC69234323F00073096A0B43436418
:10244800002082F83C0030BC70470220704700BF73
:10245800000001400004014010B504468368026989
:10246800134342691343C269134301680868914AD8
:1024780002401A430A602268536823F44053E16813
:102488000B435360A269236A1A4321688B6823F4BB
:10249800306313438B602368874A934218D0874A76
:1024A80093423AD0864A93424FD0864A93425ED0AE
:1024B800854A93426DD0854A93427FD0844A93429D
:1024C80000F09180834A934200F0A28010230BE031
:1024D800814BD3F8903003F00303032B1BD8DFE8BC
:1024E80003F00216AB180123E069B0F5004F00F0C5
:1024F800D780082B00F23881DFE813F01401270198
:10250800120136012A013601360136012D01042354
:10251800EAE70823E8E71023E6E76F4BD3F89030A3
:1025280003F00C030C2B0ED8DFE803F0070D0D0D9C
:10253800090D0D0D880D0D0D0B000023D4E70423A4
:10254800D2E70823D0E71023CEE7634BD3F89030C7
:1025580003F03003202B73D005D8002B72D0102B3A
:1025680072D10423C0E7302B70D10823BCE75A4B43
:10257800D3F8903003F0C003802B69D005D8002B26
:1025880068D0402B68D10423AEE7C02B66D108235E
:10259800AAE7514BD3F8903003F44073B3F5007FAA
:1025A8005ED006D8002B5DD0B3F5807F5CD10423C4
:1025B8009AE7B3F5407F59D1082395E7464BD3F8FE
:1025C800903003F44063B3F5006F51D006D8002B68
:1025D80050D0B3F5806F4FD1042385E7B3F5406F32
:1025E8004CD1082380E73C4BD3F8903003F4405398
:1025F800B3F5005F44D006D8002B43D0B3F5805F15
:1026080042D1042370E7B3F5405F3FD108236BE75D
:10261800314BD3F8903003F44043B3F5004F37D033
:1026280005D8BBB3B3F5804F36D104235CE7B3F5C7
:10263800404F33D1082357E7022355E7022353E7D6
:10264800022351E700234FE710234DE710234BE700
:10265800022349E7002347E7102345E7102343E710
:10266800022341E700233FE710233DE710233BE720
:10267800022339E7012337E7102335E7102333E72F
:10268800022331E700232FE710232DE710232BE740
:10269800022329E7002327E7102325E7102323E750
:1026A800082B5BD8DFE803F01A343A5A375A5A5ADB
:1026B8001E0000BFF369FFEF001001400044004016
:1026C80000480040004C0040005000400014014009
:1026D80000780040007C004000380240FEF7CAFF46
:1026E80000283DD06268530803EB4003B3FBF2F3C4
:1026F800A3F110014FF6EF72914233D89AB222F04B
:102708000F02C3F3420313432268D360002030E072
:10271800FEF7C0FFE4E7FEF783FEE1E71748E1E7CD
:10272800164802E0FEF7A6FF00B3636800EB53000B
:10273800B0FBF3F0A0F110024FF6EF739A4217D8EE
:10274800236880B2D860002013E0FEF7A3FFEBE710
:10275800FEF766FEE8E74FF40040E6E7012008E0F0
:10276800002006E0012004E0012002E0002000E053
:1027780001200023A366E36610BD00BF0024F40017
:10278800436A13F0010F06D00268536823F400333C
:10279800816A0B435360436A13F0020F06D0026844
:1027A800536823F48033C16A0B435360436A13F0C0
:1027B800040F06D00268536823F48023016B0B438F
:1027C8005360436A13F0080F06D00268536823F475
:1027D8000043416B0B435360436A13F0100F06D05C
:1027E8000268936823F48053816B0B439360436AB8
:1027F80013F0200F06D00268936823F40053C16BCE
:102808000B439360436A13F0400F0AD00268536881
:1028180023F48013016C0B435360036CB3F5801FE2
:102828000BD0436A13F0800F06D00268536823F474
:102838000023816C0B43536070470268536823F48C
:10284800C003416C0B435360EBE72DE9F8430546A1
:102858000F4616469946DDF820802B68DC6937EA72
:1028680004040CBF01240024B44255D1B8F1FF3F41
:10287800F3D0FEF771F9A0EB090040452ED8B8F166
:10288800000F2BD02B681A6812F0040FE5D0DA6914
:1028980012F4006FE1D04FF400621A622A6852E81D
:1028A800003F23F4D07342E800310029F6D12A68AA
:1028B80002F1080353E8003F23F00103083242E81D
:1028C80000310029F3D12023EB67C5F88030C5F823
:1028D8008430002385F8783003201EE02A6852E807
:1028E800003F23F4D07342E800310029F6D12A686A
:1028F80002F1080353E8003F23F00103083242E8DD
:1029080000310029F3D12023EB67C5F8803000237C
:1029180085F87830032000E00020BDE8F88310B582
:1029280082B004460023C0F88430FEF715F9236806
:102938001B6813F0080F0AD12023E367C4F880301E
:1029480000202066606684F8780002B010BD6FF041
:102958007E430093034600224FF400112046FFF700
:1029680074FF0028E8D00320EFE768B310B50446E9
:10297800C36F03B32423E3672268136823F00103BA
:1029880013602046FFF768FD012813D0636ABBB9BE
:102998002268536823F4904353602268936823F0B5
:1029A8002A0393602268136843F0010313602046EA
:1029B800FFF7B5FF10BD80F87830FEF733F8D9E798
:1029C8002046FFF7DDFEE3E701207047DFF834D04B
:1029D8000D480E490E4A002302E0D458C45004336F
:1029E800C4188C42F9D30B4A0B4C002301E0136046
:1029F8000432A242FBD3FEF767F800F019F8FDF79E
:102A080025FE704700000520000000200C00002073
:102A18007C2D00080C000020F8010020FEE702448D
:102A28000346934200D1704703F8011BF9E7000001
:102A380070B50D4D0D4C641BA4100026A64209D19B
:102A48000B4D0C4C00F076F9641BA4100026A6422E
:102A580005D170BD55F8043B98470136EEE755F8A7
:102A6800043B98470136F2E7742D0008742D0008DE
:102A7800742D0008782D00082DE9F047089D0E46B2
:102A880004460F46002B4AD194468C45B2FA82F28E
:102A980060D942B1C2F12003974020FA03F30CFA3F
:102AA80002FC1F4394404FEA1C4E1FFA8CF6B7FBFA
:102AB800FEF1230C0EFB117743EA074301FB06F0F6
:102AC80098420AD91CEB030301F1FF3780F0158106
:102AD800984240F21281023963441B1AA4B2B3FB34
:102AE800FEF00EFB103344EA034400FB06F6A64250
:102AF8000AD91CEB040400F1FF3380F00081A642E0
:102B080040F2FD806444023840EA0140A41B0021E1
:102B18001DB1D4400023C5E90043BDE8F0878B42CE
:102B280005D90DB1C5E9000100210846F5E7B3FA5A
:102B380083F1002946D1B34202D3824200F2F580E4
:102B4800841A66EB030201201746002DE5D0C5E97B
:102B58000047E2E7002A40F09380A1EB0C034FEA1C
:102B68001C471FFA8CFE0121B3FBF7F607FB163052
:102B7800230C43EA00430EFB06F0984208D91CEBED
:102B8800030306F1FF3802D2984200F2D08046468D
:102B98001B1AA4B2B3FBF7F007FB103344EA034453
:102BA8000EFB00FEA64508D91CEB040400F1FF3318
:102BB80002D2A64500F2B6801846A4EB0E0440EAFD
:102BC8000640A5E7C1F120078B4022FA07FC4CEA32
:102BD800030C06FA01FE20FA07F426FA07F344EA82
:102BE8000E0400FA01F84FEA1C404FEA1449B3FBFF
:102BF800F0FE1FFA8CF600FB1E3349EA03430EFB76
:102C080006F9994502FA01F20BD91CEB03030EF100
:102C1800FF3A80F08580994540F28280AEF1020E3D
:102C28006344A3EB0909A4B2B9FBF0F300FB1399C1
:102C380044EA094403FB06F6A64208D91CEB04043F
:102C480003F1FF3068D2A64266D9023B644443EAE6
:102C58000E40A41BA0FB02E6B4427346B14652D311
:102C68004FD05DB1B8EB030264EB090404FA07F72F
:102C780022FA01F31F43CC40C5E9007400214CE758
:102C8800C2F1200120FA01F30CFA02FC26FA01F144
:102C9800964033434FEA1C471FFA8CFEB1FBF7F00E
:102CA80007FB1016190C41EA064100FB0EF68E428E
:102CB80004FA02F408D91CEB010100F1FF382DD207
:102CC8008E422BD902386144891B9BB2B1FBF7F6BF
:102CD80007FB161143EA014306FB0EF1994208D996
:102CE8001CEB030306F1FF3814D2994212D9023EB5
:102CF80063445B1A46EA004136E73946EDE6184672
:102D080002E7F045ADD2BEEB020366EB0C060138D4
:102D1800B146A6E74646ECE7034698E74046D3E7C0
:102D2800D6467EE76444023847E708460DE7023E88
:102D380063442DE7F8B500BFF8BC08BC9E46704751
:0C2D4800F8B500BFF8BC08BC9E46704700
:102D54000000000001020304000000000000000065
:082D640001020304060708093F
:082D6C0014FDFF7F01000000CF
:042D74002102000830
:042D7800FD01000851
:0C2D7C000024F400010000001000000022
:04000005080029D5F1
:00000001FF
